{
  "_format": "hh-sol-artifact-1",
  "contractName": "Auction",
  "sourceName": "contracts/auction.sol",
  "abi": [
    {
      "inputs": [],
      "stateMutability": "nonpayable",
      "type": "constructor"
    },
    {
      "anonymous": false,
      "inputs": [
        {
          "indexed": false,
          "internalType": "uint256",
          "name": "code",
          "type": "uint256"
        },
        {
          "indexed": false,
          "internalType": "string",
          "name": "title",
          "type": "string"
        },
        {
          "indexed": false,
          "internalType": "uint256",
          "name": "minimum_price",
          "type": "uint256"
        },
        {
          "indexed": false,
          "internalType": "uint256",
          "name": "duration",
          "type": "uint256"
        }
      ],
      "name": "auctionCreated",
      "type": "event"
    },
    {
      "anonymous": false,
      "inputs": [
        {
          "indexed": false,
          "internalType": "uint256",
          "name": "code",
          "type": "uint256"
        },
        {
          "indexed": false,
          "internalType": "string",
          "name": "title",
          "type": "string"
        },
        {
          "indexed": false,
          "internalType": "uint256",
          "name": "bid",
          "type": "uint256"
        },
        {
          "indexed": false,
          "internalType": "address",
          "name": "bidder",
          "type": "address"
        }
      ],
      "name": "bidPlaced",
      "type": "event"
    },
    {
      "inputs": [],
      "name": "admin",
      "outputs": [
        {
          "internalType": "address",
          "name": "",
          "type": "address"
        }
      ],
      "stateMutability": "view",
      "type": "function"
    },
    {
      "inputs": [
        {
          "internalType": "uint256",
          "name": "code",
          "type": "uint256"
        }
      ],
      "name": "auction_bid",
      "outputs": [],
      "stateMutability": "payable",
      "type": "function"
    },
    {
      "inputs": [
        {
          "internalType": "uint256",
          "name": "code",
          "type": "uint256"
        },
        {
          "internalType": "address",
          "name": "auction_admin",
          "type": "address"
        },
        {
          "internalType": "uint256",
          "name": "duration",
          "type": "uint256"
        },
        {
          "internalType": "string",
          "name": "title",
          "type": "string"
        },
        {
          "internalType": "string",
          "name": "description",
          "type": "string"
        },
        {
          "internalType": "string",
          "name": "image",
          "type": "string"
        },
        {
          "internalType": "uint256",
          "name": "minimum_price",
          "type": "uint256"
        }
      ],
      "name": "auction_init",
      "outputs": [],
      "stateMutability": "nonpayable",
      "type": "function"
    },
    {
      "inputs": [],
      "name": "getAuctions",
      "outputs": [
        {
          "components": [
            {
              "internalType": "uint256",
              "name": "code",
              "type": "uint256"
            },
            {
              "internalType": "address",
              "name": "admin",
              "type": "address"
            },
            {
              "internalType": "uint256",
              "name": "start_time",
              "type": "uint256"
            },
            {
              "internalType": "uint256",
              "name": "end_time",
              "type": "uint256"
            },
            {
              "internalType": "string",
              "name": "title",
              "type": "string"
            },
            {
              "internalType": "string",
              "name": "description",
              "type": "string"
            },
            {
              "internalType": "uint256",
              "name": "minimum_price",
              "type": "uint256"
            },
            {
              "internalType": "uint256",
              "name": "current_price",
              "type": "uint256"
            },
            {
              "internalType": "address",
              "name": "highest_bidder",
              "type": "address"
            },
            {
              "internalType": "string",
              "name": "image",
              "type": "string"
            }
          ],
          "internalType": "struct Auction.auction_structure[]",
          "name": "",
          "type": "tuple[]"
        }
      ],
      "stateMutability": "view",
      "type": "function"
    },
    {
      "inputs": [
        {
          "internalType": "uint256",
          "name": "",
          "type": "uint256"
        }
      ],
      "name": "live_auctions",
      "outputs": [
        {
          "internalType": "uint256",
          "name": "code",
          "type": "uint256"
        },
        {
          "internalType": "address",
          "name": "admin",
          "type": "address"
        },
        {
          "internalType": "uint256",
          "name": "start_time",
          "type": "uint256"
        },
        {
          "internalType": "uint256",
          "name": "end_time",
          "type": "uint256"
        },
        {
          "internalType": "string",
          "name": "title",
          "type": "string"
        },
        {
          "internalType": "string",
          "name": "description",
          "type": "string"
        },
        {
          "internalType": "uint256",
          "name": "minimum_price",
          "type": "uint256"
        },
        {
          "internalType": "uint256",
          "name": "current_price",
          "type": "uint256"
        },
        {
          "internalType": "address",
          "name": "highest_bidder",
          "type": "address"
        },
        {
          "internalType": "string",
          "name": "image",
          "type": "string"
        }
      ],
      "stateMutability": "view",
      "type": "function"
    }
  ],
  "bytecode": "0x608060405234801561001057600080fd5b50336000806101000a81548173ffffffffffffffffffffffffffffffffffffffff021916908373ffffffffffffffffffffffffffffffffffffffff1602179055506117bc806100606000396000f3fe60806040526004361061004a5760003560e01c806348dd9ffd1461004f578063557731d0146100785780639da0bc3d146100be578063d7c06919146100da578063f851a44014610105575b600080fd5b34801561005b57600080fd5b5061007660048036038101906100719190610cd0565b610130565b005b34801561008457600080fd5b5061009f600480360381019061009a9190610dc6565b610332565b6040516100b59a99989796959493929190610e90565b60405180910390f35b6100d860048036038101906100d39190610dc6565b61056e565b005b3480156100e657600080fd5b506100ef6107ca565b6040516100fc9190611153565b60405180910390f35b34801561011157600080fd5b5061011a610abe565b6040516101279190611175565b60405180910390f35b60004290506000868261014391906111bf565b905060016040518061014001604052808b81526020018a73ffffffffffffffffffffffffffffffffffffffff16815260200184815260200183815260200188815260200187815260200185815260200160008152602001600073ffffffffffffffffffffffffffffffffffffffff1681526020018681525090806001815401808255809150506001900390600052602060002090600a02016000909190919091506000820151816000015560208201518160010160006101000a81548173ffffffffffffffffffffffffffffffffffffffff021916908373ffffffffffffffffffffffffffffffffffffffff1602179055506040820151816002015560608201518160030155608082015181600401908161025e91906113ff565b5060a082015181600501908161027491906113ff565b5060c0820151816006015560e082015181600701556101008201518160080160006101000a81548173ffffffffffffffffffffffffffffffffffffffff021916908373ffffffffffffffffffffffffffffffffffffffff1602179055506101208201518160090190816102e791906113ff565b5050507f3913e02939edbf80317fb8918381046a1077ae115a5a3a3e1d8551874d53b3c18987858a60405161031f94939291906114d1565b60405180910390a1505050505050505050565b6001818154811061034257600080fd5b90600052602060002090600a02016000915090508060000154908060010160009054906101000a900473ffffffffffffffffffffffffffffffffffffffff169080600201549080600301549080600401805461039d90611222565b80601f01602080910402602001604051908101604052809291908181526020018280546103c990611222565b80156104165780601f106103eb57610100808354040283529160200191610416565b820191906000526020600020905b8154815290600101906020018083116103f957829003601f168201915b50505050509080600501805461042b90611222565b80601f016020809104026020016040519081016040528092919081815260200182805461045790611222565b80156104a45780601f10610479576101008083540402835291602001916104a4565b820191906000526020600020905b81548152906001019060200180831161048757829003601f168201915b5050505050908060060154908060070154908060080160009054906101000a900473ffffffffffffffffffffffffffffffffffffffff16908060090180546104eb90611222565b80601f016020809104026020016040519081016040528092919081815260200182805461051790611222565b80156105645780601f1061053957610100808354040283529160200191610564565b820191906000526020600020905b81548152906001019060200180831161054757829003601f168201915b505050505090508a565b600060018054905090506000805b828110156107845783600182815481106105995761059861151d565b5b90600052602060002090600a020160000154036107775760019150600181815481106105c8576105c761151d565b5b90600052602060002090600a020160070154341161061b576040517f08c379a0000000000000000000000000000000000000000000000000000000008152600401610612906115be565b60405180910390fd5b6001818154811061062f5761062e61151d565b5b90600052602060002090600a020160030154421115610683576040517f08c379a000000000000000000000000000000000000000000000000000000000815260040161067a9061162a565b60405180910390fd5b34600182815481106106985761069761151d565b5b90600052602060002090600a02016007018190555033600182815481106106c2576106c161151d565b5b90600052602060002090600a020160080160006101000a81548173ffffffffffffffffffffffffffffffffffffffff021916908373ffffffffffffffffffffffffffffffffffffffff1602179055507f0be86ef999a6e493578ab0aae62b58e6eb14c2a793d23a388b9c36f194a1a10684600183815481106107475761074661151d565b5b90600052602060002090600a0201600401343360405161076a94939291906116ce565b60405180910390a1610784565b808060010191505061057c565b50806107c5576040517f08c379a00000000000000000000000000000000000000000000000000000000081526004016107bc90611766565b60405180910390fd5b505050565b60606001805480602002602001604051908101604052809291908181526020016000905b82821015610ab557838290600052602060002090600a020160405180610140016040529081600082015481526020016001820160009054906101000a900473ffffffffffffffffffffffffffffffffffffffff1673ffffffffffffffffffffffffffffffffffffffff1673ffffffffffffffffffffffffffffffffffffffff168152602001600282015481526020016003820154815260200160048201805461089690611222565b80601f01602080910402602001604051908101604052809291908181526020018280546108c290611222565b801561090f5780601f106108e45761010080835404028352916020019161090f565b820191906000526020600020905b8154815290600101906020018083116108f257829003601f168201915b5050505050815260200160058201805461092890611222565b80601f016020809104026020016040519081016040528092919081815260200182805461095490611222565b80156109a15780601f10610976576101008083540402835291602001916109a1565b820191906000526020600020905b81548152906001019060200180831161098457829003601f168201915b5050505050815260200160068201548152602001600782015481526020016008820160009054906101000a900473ffffffffffffffffffffffffffffffffffffffff1673ffffffffffffffffffffffffffffffffffffffff1673ffffffffffffffffffffffffffffffffffffffff168152602001600982018054610a2490611222565b80601f0160208091040260200160405190810160405280929190818152602001828054610a5090611222565b8015610a9d5780601f10610a7257610100808354040283529160200191610a9d565b820191906000526020600020905b815481529060010190602001808311610a8057829003601f168201915b505050505081525050815260200190600101906107ee565b50505050905090565b60008054906101000a900473ffffffffffffffffffffffffffffffffffffffff1681565b6000604051905090565b600080fd5b600080fd5b6000819050919050565b610b0981610af6565b8114610b1457600080fd5b50565b600081359050610b2681610b00565b92915050565b600073ffffffffffffffffffffffffffffffffffffffff82169050919050565b6000610b5782610b2c565b9050919050565b610b6781610b4c565b8114610b7257600080fd5b50565b600081359050610b8481610b5e565b92915050565b600080fd5b600080fd5b6000601f19601f8301169050919050565b7f4e487b7100000000000000000000000000000000000000000000000000000000600052604160045260246000fd5b610bdd82610b94565b810181811067ffffffffffffffff82111715610bfc57610bfb610ba5565b5b80604052505050565b6000610c0f610ae2565b9050610c1b8282610bd4565b919050565b600067ffffffffffffffff821115610c3b57610c3a610ba5565b5b610c4482610b94565b9050602081019050919050565b82818337600083830152505050565b6000610c73610c6e84610c20565b610c05565b905082815260208101848484011115610c8f57610c8e610b8f565b5b610c9a848285610c51565b509392505050565b600082601f830112610cb757610cb6610b8a565b5b8135610cc7848260208601610c60565b91505092915050565b600080600080600080600060e0888a031215610cef57610cee610aec565b5b6000610cfd8a828b01610b17565b9750506020610d0e8a828b01610b75565b9650506040610d1f8a828b01610b17565b955050606088013567ffffffffffffffff811115610d4057610d3f610af1565b5b610d4c8a828b01610ca2565b945050608088013567ffffffffffffffff811115610d6d57610d6c610af1565b5b610d798a828b01610ca2565b93505060a088013567ffffffffffffffff811115610d9a57610d99610af1565b5b610da68a828b01610ca2565b92505060c0610db78a828b01610b17565b91505092959891949750929550565b600060208284031215610ddc57610ddb610aec565b5b6000610dea84828501610b17565b91505092915050565b610dfc81610af6565b82525050565b610e0b81610b4c565b82525050565b600081519050919050565b600082825260208201905092915050565b60005b83811015610e4b578082015181840152602081019050610e30565b60008484015250505050565b6000610e6282610e11565b610e6c8185610e1c565b9350610e7c818560208601610e2d565b610e8581610b94565b840191505092915050565b600061014082019050610ea6600083018d610df3565b610eb3602083018c610e02565b610ec0604083018b610df3565b610ecd606083018a610df3565b8181036080830152610edf8189610e57565b905081810360a0830152610ef38188610e57565b9050610f0260c0830187610df3565b610f0f60e0830186610df3565b610f1d610100830185610e02565b818103610120830152610f308184610e57565b90509b9a5050505050505050505050565b600081519050919050565b600082825260208201905092915050565b6000819050602082019050919050565b610f7681610af6565b82525050565b610f8581610b4c565b82525050565b600082825260208201905092915050565b6000610fa782610e11565b610fb18185610f8b565b9350610fc1818560208601610e2d565b610fca81610b94565b840191505092915050565b600061014083016000830151610fee6000860182610f6d565b5060208301516110016020860182610f7c565b5060408301516110146040860182610f6d565b5060608301516110276060860182610f6d565b506080830151848203608086015261103f8282610f9c565b91505060a083015184820360a08601526110598282610f9c565b91505060c083015161106e60c0860182610f6d565b5060e083015161108160e0860182610f6d565b50610100830151611096610100860182610f7c565b506101208301518482036101208601526110b08282610f9c565b9150508091505092915050565b60006110c98383610fd5565b905092915050565b6000602082019050919050565b60006110e982610f41565b6110f38185610f4c565b93508360208202850161110585610f5d565b8060005b85811015611141578484038952815161112285826110bd565b945061112d836110d1565b925060208a01995050600181019050611109565b50829750879550505050505092915050565b6000602082019050818103600083015261116d81846110de565b905092915050565b600060208201905061118a6000830184610e02565b92915050565b7f4e487b7100000000000000000000000000000000000000000000000000000000600052601160045260246000fd5b60006111ca82610af6565b91506111d583610af6565b92508282019050808211156111ed576111ec611190565b5b92915050565b7f4e487b7100000000000000000000000000000000000000000000000000000000600052602260045260246000fd5b6000600282049050600182168061123a57607f821691505b60208210810361124d5761124c6111f3565b5b50919050565b60008190508160005260206000209050919050565b60006020601f8301049050919050565b600082821b905092915050565b6000600883026112b57fffffffffffffffffffffffffffffffffffffffffffffffffffffffffffffffff82611278565b6112bf8683611278565b95508019841693508086168417925050509392505050565b6000819050919050565b60006112fc6112f76112f284610af6565b6112d7565b610af6565b9050919050565b6000819050919050565b611316836112e1565b61132a61132282611303565b848454611285565b825550505050565b600090565b61133f611332565b61134a81848461130d565b505050565b5b8181101561136e57611363600082611337565b600181019050611350565b5050565b601f8211156113b35761138481611253565b61138d84611268565b8101602085101561139c578190505b6113b06113a885611268565b83018261134f565b50505b505050565b600082821c905092915050565b60006113d6600019846008026113b8565b1980831691505092915050565b60006113ef83836113c5565b9150826002028217905092915050565b61140882610e11565b67ffffffffffffffff81111561142157611420610ba5565b5b61142b8254611222565b611436828285611372565b600060209050601f8311600181146114695760008415611457578287015190505b61146185826113e3565b8655506114c9565b601f19841661147786611253565b60005b8281101561149f5784890151825560018201915060208501945060208101905061147a565b868310156114bc57848901516114b8601f8916826113c5565b8355505b6001600288020188555050505b505050505050565b60006080820190506114e66000830187610df3565b81810360208301526114f88186610e57565b90506115076040830185610df3565b6115146060830184610df3565b95945050505050565b7f4e487b7100000000000000000000000000000000000000000000000000000000600052603260045260246000fd5b7f43757272656e74206269642073686f756c64206265206772656174657220746860008201527f616e207468652070726576696f7573206f6e652e000000000000000000000000602082015250565b60006115a8603483610e1c565b91506115b38261154c565b604082019050919050565b600060208201905081810360008301526115d78161159b565b9050919050565b7f41756374696f6e20436c6f736564000000000000000000000000000000000000600082015250565b6000611614600e83610e1c565b915061161f826115de565b602082019050919050565b6000602082019050818103600083015261164381611607565b9050919050565b6000815461165781611222565b6116618186610e1c565b9450600182166000811461167c5760018114611692576116c5565b60ff1983168652811515602002860193506116c5565b61169b85611253565b60005b838110156116bd5781548189015260018201915060208101905061169e565b808801955050505b50505092915050565b60006080820190506116e36000830187610df3565b81810360208301526116f5818661164a565b90506117046040830185610df3565b6117116060830184610e02565b95945050505050565b7f41756374696f6e206e6f7420666f756e64000000000000000000000000000000600082015250565b6000611750601183610e1c565b915061175b8261171a565b602082019050919050565b6000602082019050818103600083015261177f81611743565b905091905056fea26469706673582212200318d02ddd565fddcd5964b0d1b6c9462a6b3a659e164f0fb23f8f35aa6f634d64736f6c63430008180033",
  "linkReferences": {},
  "deployedLinkReferences": {}
}