{
    "_format": "hh-sol-artifact-1",
    "contractName": "Auction",
    "sourceName": "contracts/auction.sol",
    "abi": [
        {
            "inputs": [],
            "stateMutability": "nonpayable",
            "type": "constructor"
        },
        {
            "anonymous": false,
            "inputs": [
                {
                    "indexed": false,
                    "internalType": "uint256",
                    "name": "code",
                    "type": "uint256"
                },
                {
                    "indexed": false,
                    "internalType": "string",
                    "name": "title",
                    "type": "string"
                },
                {
                    "indexed": false,
                    "internalType": "uint256",
                    "name": "minimum_price",
                    "type": "uint256"
                },
                {
                    "indexed": false,
                    "internalType": "uint256",
                    "name": "duration",
                    "type": "uint256"
                }
            ],
            "name": "auctionCreated",
            "type": "event"
        },
        {
            "anonymous": false,
            "inputs": [
                {
                    "indexed": false,
                    "internalType": "uint256",
                    "name": "code",
                    "type": "uint256"
                },
                {
                    "indexed": false,
                    "internalType": "string",
                    "name": "title",
                    "type": "string"
                },
                {
                    "indexed": false,
                    "internalType": "uint256",
                    "name": "bid",
                    "type": "uint256"
                },
                {
                    "indexed": false,
                    "internalType": "address",
                    "name": "bidder",
                    "type": "address"
                }
            ],
            "name": "bidPlaced",
            "type": "event"
        },
        {
            "inputs": [],
            "name": "admin",
            "outputs": [
                {
                    "internalType": "address",
                    "name": "",
                    "type": "address"
                }
            ],
            "stateMutability": "view",
            "type": "function"
        },
        {
            "inputs": [
                {
                    "internalType": "uint256",
                    "name": "code",
                    "type": "uint256"
                }
            ],
            "name": "auction_bid",
            "outputs": [],
            "stateMutability": "payable",
            "type": "function"
        },
        {
            "inputs": [
                {
                    "internalType": "uint256",
                    "name": "code",
                    "type": "uint256"
                },
                {
                    "internalType": "address",
                    "name": "auction_admin",
                    "type": "address"
                },
                {
                    "internalType": "uint256",
                    "name": "duration",
                    "type": "uint256"
                },
                {
                    "internalType": "string",
                    "name": "title",
                    "type": "string"
                },
                {
                    "internalType": "string",
                    "name": "description",
                    "type": "string"
                },
                {
                    "internalType": "string",
                    "name": "image",
                    "type": "string"
                },
                {
                    "internalType": "uint256",
                    "name": "minimum_price",
                    "type": "uint256"
                }
            ],
            "name": "auction_init",
            "outputs": [],
            "stateMutability": "nonpayable",
            "type": "function"
        },
        {
            "inputs": [
                {
                    "internalType": "uint256",
                    "name": "",
                    "type": "uint256"
                }
            ],
            "name": "live_auctions",
            "outputs": [
                {
                    "internalType": "uint256",
                    "name": "code",
                    "type": "uint256"
                },
                {
                    "internalType": "address",
                    "name": "admin",
                    "type": "address"
                },
                {
                    "internalType": "uint256",
                    "name": "start_time",
                    "type": "uint256"
                },
                {
                    "internalType": "uint256",
                    "name": "end_time",
                    "type": "uint256"
                },
                {
                    "internalType": "string",
                    "name": "title",
                    "type": "string"
                },
                {
                    "internalType": "string",
                    "name": "description",
                    "type": "string"
                },
                {
                    "internalType": "uint256",
                    "name": "minimum_price",
                    "type": "uint256"
                },
                {
                    "internalType": "uint256",
                    "name": "current_price",
                    "type": "uint256"
                },
                {
                    "internalType": "address",
                    "name": "highest_bidder",
                    "type": "address"
                },
                {
                    "internalType": "string",
                    "name": "image",
                    "type": "string"
                }
            ],
            "stateMutability": "view",
            "type": "function"
        }
    ],
    "bytecode": "0x608060405234801561001057600080fd5b50336000806101000a81548173ffffffffffffffffffffffffffffffffffffffff021916908373ffffffffffffffffffffffffffffffffffffffff16021790555061125e806100606000396000f3fe60806040526004361061003f5760003560e01c806348dd9ffd14610044578063557731d01461006d5780639da0bc3d146100b3578063f851a440146100cf575b600080fd5b34801561005057600080fd5b5061006b600480360381019061006691906109a6565b6100fa565b005b34801561007957600080fd5b50610094600480360381019061008f9190610a9c565b6102fc565b6040516100aa9a99989796959493929190610b66565b60405180910390f35b6100cd60048036038101906100c89190610a9c565b610538565b005b3480156100db57600080fd5b506100e4610794565b6040516100f19190610c17565b60405180910390f35b60004290506000868261010d9190610c61565b905060016040518061014001604052808b81526020018a73ffffffffffffffffffffffffffffffffffffffff16815260200184815260200183815260200188815260200187815260200185815260200160008152602001600073ffffffffffffffffffffffffffffffffffffffff1681526020018681525090806001815401808255809150506001900390600052602060002090600a02016000909190919091506000820151816000015560208201518160010160006101000a81548173ffffffffffffffffffffffffffffffffffffffff021916908373ffffffffffffffffffffffffffffffffffffffff160217905550604082015181600201556060820151816003015560808201518160040190816102289190610ea1565b5060a082015181600501908161023e9190610ea1565b5060c0820151816006015560e082015181600701556101008201518160080160006101000a81548173ffffffffffffffffffffffffffffffffffffffff021916908373ffffffffffffffffffffffffffffffffffffffff1602179055506101208201518160090190816102b19190610ea1565b5050507f3913e02939edbf80317fb8918381046a1077ae115a5a3a3e1d8551874d53b3c18987858a6040516102e99493929190610f73565b60405180910390a1505050505050505050565b6001818154811061030c57600080fd5b90600052602060002090600a02016000915090508060000154908060010160009054906101000a900473ffffffffffffffffffffffffffffffffffffffff169080600201549080600301549080600401805461036790610cc4565b80601f016020809104026020016040519081016040528092919081815260200182805461039390610cc4565b80156103e05780601f106103b5576101008083540402835291602001916103e0565b820191906000526020600020905b8154815290600101906020018083116103c357829003601f168201915b5050505050908060050180546103f590610cc4565b80601f016020809104026020016040519081016040528092919081815260200182805461042190610cc4565b801561046e5780601f106104435761010080835404028352916020019161046e565b820191906000526020600020905b81548152906001019060200180831161045157829003601f168201915b5050505050908060060154908060070154908060080160009054906101000a900473ffffffffffffffffffffffffffffffffffffffff16908060090180546104b590610cc4565b80601f01602080910402602001604051908101604052809291908181526020018280546104e190610cc4565b801561052e5780601f106105035761010080835404028352916020019161052e565b820191906000526020600020905b81548152906001019060200180831161051157829003601f168201915b505050505090508a565b600060018054905090506000805b8281101561074e57836001828154811061056357610562610fbf565b5b90600052602060002090600a0201600001540361074157600191506001818154811061059257610591610fbf565b5b90600052602060002090600a02016007015434116105e5576040517f08c379a00000000000000000000000000000000000000000000000000000000081526004016105dc90611060565b60405180910390fd5b600181815481106105f9576105f8610fbf565b5b90600052602060002090600a02016003015442111561064d576040517f08c379a0000000000000000000000000000000000000000000000000000000008152600401610644906110cc565b60405180910390fd5b346001828154811061066257610661610fbf565b5b90600052602060002090600a020160070181905550336001828154811061068c5761068b610fbf565b5b90600052602060002090600a020160080160006101000a81548173ffffffffffffffffffffffffffffffffffffffff021916908373ffffffffffffffffffffffffffffffffffffffff1602179055507f0be86ef999a6e493578ab0aae62b58e6eb14c2a793d23a388b9c36f194a1a106846001838154811061071157610710610fbf565b5b90600052602060002090600a020160040134336040516107349493929190611170565b60405180910390a161074e565b8080600101915050610546565b508061078f576040517f08c379a000000000000000000000000000000000000000000000000000000000815260040161078690611208565b60405180910390fd5b505050565b60008054906101000a900473ffffffffffffffffffffffffffffffffffffffff1681565b6000604051905090565b600080fd5b600080fd5b6000819050919050565b6107df816107cc565b81146107ea57600080fd5b50565b6000813590506107fc816107d6565b92915050565b600073ffffffffffffffffffffffffffffffffffffffff82169050919050565b600061082d82610802565b9050919050565b61083d81610822565b811461084857600080fd5b50565b60008135905061085a81610834565b92915050565b600080fd5b600080fd5b6000601f19601f8301169050919050565b7f4e487b7100000000000000000000000000000000000000000000000000000000600052604160045260246000fd5b6108b38261086a565b810181811067ffffffffffffffff821117156108d2576108d161087b565b5b80604052505050565b60006108e56107b8565b90506108f182826108aa565b919050565b600067ffffffffffffffff8211156109115761091061087b565b5b61091a8261086a565b9050602081019050919050565b82818337600083830152505050565b6000610949610944846108f6565b6108db565b90508281526020810184848401111561096557610964610865565b5b610970848285610927565b509392505050565b600082601f83011261098d5761098c610860565b5b813561099d848260208601610936565b91505092915050565b600080600080600080600060e0888a0312156109c5576109c46107c2565b5b60006109d38a828b016107ed565b97505060206109e48a828b0161084b565b96505060406109f58a828b016107ed565b955050606088013567ffffffffffffffff811115610a1657610a156107c7565b5b610a228a828b01610978565b945050608088013567ffffffffffffffff811115610a4357610a426107c7565b5b610a4f8a828b01610978565b93505060a088013567ffffffffffffffff811115610a7057610a6f6107c7565b5b610a7c8a828b01610978565b92505060c0610a8d8a828b016107ed565b91505092959891949750929550565b600060208284031215610ab257610ab16107c2565b5b6000610ac0848285016107ed565b91505092915050565b610ad2816107cc565b82525050565b610ae181610822565b82525050565b600081519050919050565b600082825260208201905092915050565b60005b83811015610b21578082015181840152602081019050610b06565b60008484015250505050565b6000610b3882610ae7565b610b428185610af2565b9350610b52818560208601610b03565b610b5b8161086a565b840191505092915050565b600061014082019050610b7c600083018d610ac9565b610b89602083018c610ad8565b610b96604083018b610ac9565b610ba3606083018a610ac9565b8181036080830152610bb58189610b2d565b905081810360a0830152610bc98188610b2d565b9050610bd860c0830187610ac9565b610be560e0830186610ac9565b610bf3610100830185610ad8565b818103610120830152610c068184610b2d565b90509b9a5050505050505050505050565b6000602082019050610c2c6000830184610ad8565b92915050565b7f4e487b7100000000000000000000000000000000000000000000000000000000600052601160045260246000fd5b6000610c6c826107cc565b9150610c77836107cc565b9250828201905080821115610c8f57610c8e610c32565b5b92915050565b7f4e487b7100000000000000000000000000000000000000000000000000000000600052602260045260246000fd5b60006002820490506001821680610cdc57607f821691505b602082108103610cef57610cee610c95565b5b50919050565b60008190508160005260206000209050919050565b60006020601f8301049050919050565b600082821b905092915050565b600060088302610d577fffffffffffffffffffffffffffffffffffffffffffffffffffffffffffffffff82610d1a565b610d618683610d1a565b95508019841693508086168417925050509392505050565b6000819050919050565b6000610d9e610d99610d94846107cc565b610d79565b6107cc565b9050919050565b6000819050919050565b610db883610d83565b610dcc610dc482610da5565b848454610d27565b825550505050565b600090565b610de1610dd4565b610dec818484610daf565b505050565b5b81811015610e1057610e05600082610dd9565b600181019050610df2565b5050565b601f821115610e5557610e2681610cf5565b610e2f84610d0a565b81016020851015610e3e578190505b610e52610e4a85610d0a565b830182610df1565b50505b505050565b600082821c905092915050565b6000610e7860001984600802610e5a565b1980831691505092915050565b6000610e918383610e67565b9150826002028217905092915050565b610eaa82610ae7565b67ffffffffffffffff811115610ec357610ec261087b565b5b610ecd8254610cc4565b610ed8828285610e14565b600060209050601f831160018114610f0b5760008415610ef9578287015190505b610f038582610e85565b865550610f6b565b601f198416610f1986610cf5565b60005b82811015610f4157848901518255600182019150602085019450602081019050610f1c565b86831015610f5e5784890151610f5a601f891682610e67565b8355505b6001600288020188555050505b505050505050565b6000608082019050610f886000830187610ac9565b8181036020830152610f9a8186610b2d565b9050610fa96040830185610ac9565b610fb66060830184610ac9565b95945050505050565b7f4e487b7100000000000000000000000000000000000000000000000000000000600052603260045260246000fd5b7f43757272656e74206269642073686f756c64206265206772656174657220746860008201527f616e207468652070726576696f7573206f6e652e000000000000000000000000602082015250565b600061104a603483610af2565b915061105582610fee565b604082019050919050565b600060208201905081810360008301526110798161103d565b9050919050565b7f41756374696f6e20436c6f736564000000000000000000000000000000000000600082015250565b60006110b6600e83610af2565b91506110c182611080565b602082019050919050565b600060208201905081810360008301526110e5816110a9565b9050919050565b600081546110f981610cc4565b6111038186610af2565b9450600182166000811461111e576001811461113457611167565b60ff198316865281151560200286019350611167565b61113d85610cf5565b60005b8381101561115f57815481890152600182019150602081019050611140565b808801955050505b50505092915050565b60006080820190506111856000830187610ac9565b818103602083015261119781866110ec565b90506111a66040830185610ac9565b6111b36060830184610ad8565b95945050505050565b7f41756374696f6e206e6f7420666f756e64000000000000000000000000000000600082015250565b60006111f2601183610af2565b91506111fd826111bc565b602082019050919050565b60006020820190508181036000830152611221816111e5565b905091905056fea2646970667358221220ed48254398f5f027db1578b860f7c5bab419e865af0c446f131a08155bc9cbb164736f6c63430008180033",
    "linkReferences": {},
    "deployedLinkReferences": {}
}