{
  "_format": "hh-sol-artifact-1",
  "contractName": "Auction",
  "sourceName": "contracts/auction.sol",
  "abi": [
    {
      "inputs": [],
      "stateMutability": "nonpayable",
      "type": "constructor"
    },
    {
      "anonymous": false,
      "inputs": [
        {
          "indexed": false,
          "internalType": "uint256",
          "name": "code",
          "type": "uint256"
        },
        {
          "indexed": false,
          "internalType": "string",
          "name": "title",
          "type": "string"
        },
        {
          "indexed": false,
          "internalType": "uint256",
          "name": "minimum_price",
          "type": "uint256"
        },
        {
          "indexed": false,
          "internalType": "uint256",
          "name": "duration",
          "type": "uint256"
        }
      ],
      "name": "auctionCreated",
      "type": "event"
    },
    {
      "anonymous": false,
      "inputs": [
        {
          "indexed": false,
          "internalType": "uint256",
          "name": "code",
          "type": "uint256"
        },
        {
          "indexed": false,
          "internalType": "string",
          "name": "title",
          "type": "string"
        },
        {
          "indexed": false,
          "internalType": "uint256",
          "name": "bid",
          "type": "uint256"
        },
        {
          "indexed": false,
          "internalType": "address",
          "name": "bidder",
          "type": "address"
        }
      ],
      "name": "bidPlaced",
      "type": "event"
    },
    {
      "inputs": [],
      "name": "admin",
      "outputs": [
        {
          "internalType": "address",
          "name": "",
          "type": "address"
        }
      ],
      "stateMutability": "view",
      "type": "function"
    },
    {
      "inputs": [
        {
          "internalType": "uint256",
          "name": "code",
          "type": "uint256"
        },
        {
          "internalType": "uint256",
          "name": "price",
          "type": "uint256"
        }
      ],
      "name": "auction_bid",
      "outputs": [],
      "stateMutability": "nonpayable",
      "type": "function"
    },
    {
      "inputs": [
        {
          "internalType": "uint256",
          "name": "code",
          "type": "uint256"
        },
        {
          "internalType": "address",
          "name": "auction_admin",
          "type": "address"
        },
        {
          "internalType": "uint256",
          "name": "duration",
          "type": "uint256"
        },
        {
          "internalType": "string",
          "name": "title",
          "type": "string"
        },
        {
          "internalType": "string",
          "name": "description",
          "type": "string"
        },
        {
          "internalType": "string",
          "name": "image",
          "type": "string"
        },
        {
          "internalType": "uint256",
          "name": "minimum_price",
          "type": "uint256"
        }
      ],
      "name": "auction_init",
      "outputs": [],
      "stateMutability": "nonpayable",
      "type": "function"
    },
    {
      "inputs": [],
      "name": "getAuctions",
      "outputs": [
        {
          "components": [
            {
              "internalType": "uint256",
              "name": "code",
              "type": "uint256"
            },
            {
              "internalType": "address",
              "name": "admin",
              "type": "address"
            },
            {
              "internalType": "uint256",
              "name": "start_time",
              "type": "uint256"
            },
            {
              "internalType": "uint256",
              "name": "end_time",
              "type": "uint256"
            },
            {
              "internalType": "string",
              "name": "title",
              "type": "string"
            },
            {
              "internalType": "string",
              "name": "description",
              "type": "string"
            },
            {
              "internalType": "uint256",
              "name": "minimum_price",
              "type": "uint256"
            },
            {
              "internalType": "uint256",
              "name": "current_price",
              "type": "uint256"
            },
            {
              "internalType": "address",
              "name": "highest_bidder",
              "type": "address"
            },
            {
              "internalType": "string",
              "name": "image",
              "type": "string"
            }
          ],
          "internalType": "struct Auction.auction_structure[]",
          "name": "",
          "type": "tuple[]"
        }
      ],
      "stateMutability": "view",
      "type": "function"
    },
    {
      "inputs": [
        {
          "internalType": "uint256",
          "name": "",
          "type": "uint256"
        }
      ],
      "name": "live_auctions",
      "outputs": [
        {
          "internalType": "uint256",
          "name": "code",
          "type": "uint256"
        },
        {
          "internalType": "address",
          "name": "admin",
          "type": "address"
        },
        {
          "internalType": "uint256",
          "name": "start_time",
          "type": "uint256"
        },
        {
          "internalType": "uint256",
          "name": "end_time",
          "type": "uint256"
        },
        {
          "internalType": "string",
          "name": "title",
          "type": "string"
        },
        {
          "internalType": "string",
          "name": "description",
          "type": "string"
        },
        {
          "internalType": "uint256",
          "name": "minimum_price",
          "type": "uint256"
        },
        {
          "internalType": "uint256",
          "name": "current_price",
          "type": "uint256"
        },
        {
          "internalType": "address",
          "name": "highest_bidder",
          "type": "address"
        },
        {
          "internalType": "string",
          "name": "image",
          "type": "string"
        }
      ],
      "stateMutability": "view",
      "type": "function"
    }
  ],
  "bytecode": "0x608060405234801561001057600080fd5b50336000806101000a81548173ffffffffffffffffffffffffffffffffffffffff021916908373ffffffffffffffffffffffffffffffffffffffff1602179055506117d6806100606000396000f3fe608060405234801561001057600080fd5b50600436106100575760003560e01c806348dd9ffd1461005c578063557731d01461007857806388a6fccf146100b1578063d7c06919146100cd578063f851a440146100eb575b600080fd5b61007660048036038101906100719190610caa565b610109565b005b610092600480360381019061008d9190610da0565b61030b565b6040516100a89a99989796959493929190610e6a565b60405180910390f35b6100cb60048036038101906100c69190610f1b565b610547565b005b6100d56107a4565b6040516100e2919061116d565b60405180910390f35b6100f3610a98565b604051610100919061118f565b60405180910390f35b60004290506000868261011c91906111d9565b905060016040518061014001604052808b81526020018a73ffffffffffffffffffffffffffffffffffffffff16815260200184815260200183815260200188815260200187815260200185815260200160008152602001600073ffffffffffffffffffffffffffffffffffffffff1681526020018681525090806001815401808255809150506001900390600052602060002090600a02016000909190919091506000820151816000015560208201518160010160006101000a81548173ffffffffffffffffffffffffffffffffffffffff021916908373ffffffffffffffffffffffffffffffffffffffff160217905550604082015181600201556060820151816003015560808201518160040190816102379190611419565b5060a082015181600501908161024d9190611419565b5060c0820151816006015560e082015181600701556101008201518160080160006101000a81548173ffffffffffffffffffffffffffffffffffffffff021916908373ffffffffffffffffffffffffffffffffffffffff1602179055506101208201518160090190816102c09190611419565b5050507f3913e02939edbf80317fb8918381046a1077ae115a5a3a3e1d8551874d53b3c18987858a6040516102f894939291906114eb565b60405180910390a1505050505050505050565b6001818154811061031b57600080fd5b90600052602060002090600a02016000915090508060000154908060010160009054906101000a900473ffffffffffffffffffffffffffffffffffffffff16908060020154908060030154908060040180546103769061123c565b80601f01602080910402602001604051908101604052809291908181526020018280546103a29061123c565b80156103ef5780601f106103c4576101008083540402835291602001916103ef565b820191906000526020600020905b8154815290600101906020018083116103d257829003601f168201915b5050505050908060050180546104049061123c565b80601f01602080910402602001604051908101604052809291908181526020018280546104309061123c565b801561047d5780601f106104525761010080835404028352916020019161047d565b820191906000526020600020905b81548152906001019060200180831161046057829003601f168201915b5050505050908060060154908060070154908060080160009054906101000a900473ffffffffffffffffffffffffffffffffffffffff16908060090180546104c49061123c565b80601f01602080910402602001604051908101604052809291908181526020018280546104f09061123c565b801561053d5780601f106105125761010080835404028352916020019161053d565b820191906000526020600020905b81548152906001019060200180831161052057829003601f168201915b505050505090508a565b600060018054905090506000805b8281101561075d57846001828154811061057257610571611537565b5b90600052602060002090600a020160000154036107505760019150600181815481106105a1576105a0611537565b5b90600052602060002090600a02016007015484116105f4576040517f08c379a00000000000000000000000000000000000000000000000000000000081526004016105eb906115d8565b60405180910390fd5b6001818154811061060857610607611537565b5b90600052602060002090600a02016003015442111561065c576040517f08c379a000000000000000000000000000000000000000000000000000000000815260040161065390611644565b60405180910390fd5b836001828154811061067157610670611537565b5b90600052602060002090600a020160070181905550336001828154811061069b5761069a611537565b5b90600052602060002090600a020160080160006101000a81548173ffffffffffffffffffffffffffffffffffffffff021916908373ffffffffffffffffffffffffffffffffffffffff1602179055507f0be86ef999a6e493578ab0aae62b58e6eb14c2a793d23a388b9c36f194a1a10685600183815481106107205761071f611537565b5b90600052602060002090600a0201600401863360405161074394939291906116e8565b60405180910390a161075d565b8080600101915050610555565b508061079e576040517f08c379a000000000000000000000000000000000000000000000000000000000815260040161079590611780565b60405180910390fd5b50505050565b60606001805480602002602001604051908101604052809291908181526020016000905b82821015610a8f57838290600052602060002090600a020160405180610140016040529081600082015481526020016001820160009054906101000a900473ffffffffffffffffffffffffffffffffffffffff1673ffffffffffffffffffffffffffffffffffffffff1673ffffffffffffffffffffffffffffffffffffffff16815260200160028201548152602001600382015481526020016004820180546108709061123c565b80601f016020809104026020016040519081016040528092919081815260200182805461089c9061123c565b80156108e95780601f106108be576101008083540402835291602001916108e9565b820191906000526020600020905b8154815290600101906020018083116108cc57829003601f168201915b505050505081526020016005820180546109029061123c565b80601f016020809104026020016040519081016040528092919081815260200182805461092e9061123c565b801561097b5780601f106109505761010080835404028352916020019161097b565b820191906000526020600020905b81548152906001019060200180831161095e57829003601f168201915b5050505050815260200160068201548152602001600782015481526020016008820160009054906101000a900473ffffffffffffffffffffffffffffffffffffffff1673ffffffffffffffffffffffffffffffffffffffff1673ffffffffffffffffffffffffffffffffffffffff1681526020016009820180546109fe9061123c565b80601f0160208091040260200160405190810160405280929190818152602001828054610a2a9061123c565b8015610a775780601f10610a4c57610100808354040283529160200191610a77565b820191906000526020600020905b815481529060010190602001808311610a5a57829003601f168201915b505050505081525050815260200190600101906107c8565b50505050905090565b60008054906101000a900473ffffffffffffffffffffffffffffffffffffffff1681565b6000604051905090565b600080fd5b600080fd5b6000819050919050565b610ae381610ad0565b8114610aee57600080fd5b50565b600081359050610b0081610ada565b92915050565b600073ffffffffffffffffffffffffffffffffffffffff82169050919050565b6000610b3182610b06565b9050919050565b610b4181610b26565b8114610b4c57600080fd5b50565b600081359050610b5e81610b38565b92915050565b600080fd5b600080fd5b6000601f19601f8301169050919050565b7f4e487b7100000000000000000000000000000000000000000000000000000000600052604160045260246000fd5b610bb782610b6e565b810181811067ffffffffffffffff82111715610bd657610bd5610b7f565b5b80604052505050565b6000610be9610abc565b9050610bf58282610bae565b919050565b600067ffffffffffffffff821115610c1557610c14610b7f565b5b610c1e82610b6e565b9050602081019050919050565b82818337600083830152505050565b6000610c4d610c4884610bfa565b610bdf565b905082815260208101848484011115610c6957610c68610b69565b5b610c74848285610c2b565b509392505050565b600082601f830112610c9157610c90610b64565b5b8135610ca1848260208601610c3a565b91505092915050565b600080600080600080600060e0888a031215610cc957610cc8610ac6565b5b6000610cd78a828b01610af1565b9750506020610ce88a828b01610b4f565b9650506040610cf98a828b01610af1565b955050606088013567ffffffffffffffff811115610d1a57610d19610acb565b5b610d268a828b01610c7c565b945050608088013567ffffffffffffffff811115610d4757610d46610acb565b5b610d538a828b01610c7c565b93505060a088013567ffffffffffffffff811115610d7457610d73610acb565b5b610d808a828b01610c7c565b92505060c0610d918a828b01610af1565b91505092959891949750929550565b600060208284031215610db657610db5610ac6565b5b6000610dc484828501610af1565b91505092915050565b610dd681610ad0565b82525050565b610de581610b26565b82525050565b600081519050919050565b600082825260208201905092915050565b60005b83811015610e25578082015181840152602081019050610e0a565b60008484015250505050565b6000610e3c82610deb565b610e468185610df6565b9350610e56818560208601610e07565b610e5f81610b6e565b840191505092915050565b600061014082019050610e80600083018d610dcd565b610e8d602083018c610ddc565b610e9a604083018b610dcd565b610ea7606083018a610dcd565b8181036080830152610eb98189610e31565b905081810360a0830152610ecd8188610e31565b9050610edc60c0830187610dcd565b610ee960e0830186610dcd565b610ef7610100830185610ddc565b818103610120830152610f0a8184610e31565b90509b9a5050505050505050505050565b60008060408385031215610f3257610f31610ac6565b5b6000610f4085828601610af1565b9250506020610f5185828601610af1565b9150509250929050565b600081519050919050565b600082825260208201905092915050565b6000819050602082019050919050565b610f9081610ad0565b82525050565b610f9f81610b26565b82525050565b600082825260208201905092915050565b6000610fc182610deb565b610fcb8185610fa5565b9350610fdb818560208601610e07565b610fe481610b6e565b840191505092915050565b6000610140830160008301516110086000860182610f87565b50602083015161101b6020860182610f96565b50604083015161102e6040860182610f87565b5060608301516110416060860182610f87565b50608083015184820360808601526110598282610fb6565b91505060a083015184820360a08601526110738282610fb6565b91505060c083015161108860c0860182610f87565b5060e083015161109b60e0860182610f87565b506101008301516110b0610100860182610f96565b506101208301518482036101208601526110ca8282610fb6565b9150508091505092915050565b60006110e38383610fef565b905092915050565b6000602082019050919050565b600061110382610f5b565b61110d8185610f66565b93508360208202850161111f85610f77565b8060005b8581101561115b578484038952815161113c85826110d7565b9450611147836110eb565b925060208a01995050600181019050611123565b50829750879550505050505092915050565b6000602082019050818103600083015261118781846110f8565b905092915050565b60006020820190506111a46000830184610ddc565b92915050565b7f4e487b7100000000000000000000000000000000000000000000000000000000600052601160045260246000fd5b60006111e482610ad0565b91506111ef83610ad0565b9250828201905080821115611207576112066111aa565b5b92915050565b7f4e487b7100000000000000000000000000000000000000000000000000000000600052602260045260246000fd5b6000600282049050600182168061125457607f821691505b6020821081036112675761126661120d565b5b50919050565b60008190508160005260206000209050919050565b60006020601f8301049050919050565b600082821b905092915050565b6000600883026112cf7fffffffffffffffffffffffffffffffffffffffffffffffffffffffffffffffff82611292565b6112d98683611292565b95508019841693508086168417925050509392505050565b6000819050919050565b600061131661131161130c84610ad0565b6112f1565b610ad0565b9050919050565b6000819050919050565b611330836112fb565b61134461133c8261131d565b84845461129f565b825550505050565b600090565b61135961134c565b611364818484611327565b505050565b5b818110156113885761137d600082611351565b60018101905061136a565b5050565b601f8211156113cd5761139e8161126d565b6113a784611282565b810160208510156113b6578190505b6113ca6113c285611282565b830182611369565b50505b505050565b600082821c905092915050565b60006113f0600019846008026113d2565b1980831691505092915050565b600061140983836113df565b9150826002028217905092915050565b61142282610deb565b67ffffffffffffffff81111561143b5761143a610b7f565b5b611445825461123c565b61145082828561138c565b600060209050601f8311600181146114835760008415611471578287015190505b61147b85826113fd565b8655506114e3565b601f1984166114918661126d565b60005b828110156114b957848901518255600182019150602085019450602081019050611494565b868310156114d657848901516114d2601f8916826113df565b8355505b6001600288020188555050505b505050505050565b60006080820190506115006000830187610dcd565b81810360208301526115128186610e31565b90506115216040830185610dcd565b61152e6060830184610dcd565b95945050505050565b7f4e487b7100000000000000000000000000000000000000000000000000000000600052603260045260246000fd5b7f43757272656e74206269642073686f756c64206265206772656174657220746860008201527f616e207468652070726576696f7573206f6e652e000000000000000000000000602082015250565b60006115c2603483610df6565b91506115cd82611566565b604082019050919050565b600060208201905081810360008301526115f1816115b5565b9050919050565b7f41756374696f6e20436c6f736564000000000000000000000000000000000000600082015250565b600061162e600e83610df6565b9150611639826115f8565b602082019050919050565b6000602082019050818103600083015261165d81611621565b9050919050565b600081546116718161123c565b61167b8186610df6565b9450600182166000811461169657600181146116ac576116df565b60ff1983168652811515602002860193506116df565b6116b58561126d565b60005b838110156116d7578154818901526001820191506020810190506116b8565b808801955050505b50505092915050565b60006080820190506116fd6000830187610dcd565b818103602083015261170f8186611664565b905061171e6040830185610dcd565b61172b6060830184610ddc565b95945050505050565b7f41756374696f6e206e6f7420666f756e64000000000000000000000000000000600082015250565b600061176a601183610df6565b915061177582611734565b602082019050919050565b600060208201905081810360008301526117998161175d565b905091905056fea26469706673582212201a04d6671f400153fe1e7ca3d83e75f27f4486e590a89c9d6a64de6b2423dc0464736f6c63430008180033",
  "linkReferences": {},
  "deployedLinkReferences": {}
}