{
  "_format": "hh-sol-artifact-1",
  "contractName": "documentVerify",
  "sourceName": "contracts/verify.sol",
  "abi": [
    {
      "inputs": [],
      "stateMutability": "nonpayable",
      "type": "constructor"
    },
    {
      "anonymous": false,
      "inputs": [
        {
          "indexed": false,
          "internalType": "address",
          "name": "from",
          "type": "address"
        },
        {
          "indexed": false,
          "internalType": "string",
          "name": "name",
          "type": "string"
        },
        {
          "indexed": false,
          "internalType": "string",
          "name": "doc_hash",
          "type": "string"
        },
        {
          "indexed": false,
          "internalType": "string",
          "name": "public_key",
          "type": "string"
        }
      ],
      "name": "doc_entry",
      "type": "event"
    },
    {
      "inputs": [],
      "name": "docCnt",
      "outputs": [
        {
          "internalType": "uint256",
          "name": "",
          "type": "uint256"
        }
      ],
      "stateMutability": "view",
      "type": "function"
    },
    {
      "inputs": [],
      "name": "owner",
      "outputs": [
        {
          "internalType": "address",
          "name": "",
          "type": "address"
        }
      ],
      "stateMutability": "view",
      "type": "function"
    },
    {
      "inputs": [
        {
          "internalType": "string[]",
          "name": "doc_hash",
          "type": "string[]"
        },
        {
          "internalType": "string[]",
          "name": "name",
          "type": "string[]"
        },
        {
          "internalType": "string[]",
          "name": "public_key",
          "type": "string[]"
        }
      ],
      "name": "secureDocuments",
      "outputs": [],
      "stateMutability": "nonpayable",
      "type": "function"
    },
    {
      "inputs": [
        {
          "internalType": "string[]",
          "name": "doc_hashes",
          "type": "string[]"
        },
        {
          "internalType": "string",
          "name": "public_key",
          "type": "string"
        }
      ],
      "name": "validateDocuments",
      "outputs": [
        {
          "internalType": "uint256[]",
          "name": "",
          "type": "uint256[]"
        }
      ],
      "stateMutability": "view",
      "type": "function"
    }
  ],
  "bytecode": "0x608060405234801561001057600080fd5b50336000806101000a81548173ffffffffffffffffffffffffffffffffffffffff021916908373ffffffffffffffffffffffffffffffffffffffff160217905550610fe8806100606000396000f3fe608060405234801561001057600080fd5b506004361061004c5760003560e01c80631ada3d0e14610051578063319dcda11461006f5780638da5cb5b1461009f578063bf95970c146100bd575b600080fd5b6100596100d9565b604051610066919061055a565b60405180910390f35b610089600480360381019061008491906107b5565b6100df565b60405161009691906108eb565b60405180910390f35b6100a76102ce565b6040516100b4919061094e565b60405180910390f35b6100d760048036038101906100d29190610969565b6102f2565b005b60015481565b60606000835167ffffffffffffffff8111156100fe576100fd61059f565b5b60405190808252806020026020018201604052801561012c5781602001602082028036833780820191505090505b50905060005b84518110156102c35760008083838151811061015157610150610a10565b5b60200260200101818152505060005b60015481101561028d5786838151811061017d5761017c610a10565b5b60200260200101516040516020016101959190610ab0565b60405160208183030381529060405280519060200120600282815481106101bf576101be610a10565b5b90600052602060002090600402016002016040516020016101e09190610bbf565b6040516020818303038152906040528051906020012014801561027257508560405160200161020f9190610ab0565b604051602081830303815290604052805190602001206002828154811061023957610238610a10565b5b906000526020600020906004020160030160405160200161025a9190610bbf565b60405160208183030381529060405280519060200120145b15610280576001915061028d565b8080600101915050610160565b50806102b55760018383815181106102a8576102a7610a10565b5b6020026020010181815250505b508080600101915050610132565b508091505092915050565b60008054906101000a900473ffffffffffffffffffffffffffffffffffffffff1681565b81518351148015610304575080518251145b610343576040517f08c379a000000000000000000000000000000000000000000000000000000000815260040161033a90610c33565b60405180910390fd5b60005b835181101561053b5760018060008282546103619190610c82565b92505081905550600260405180608001604052803373ffffffffffffffffffffffffffffffffffffffff1681526020018584815181106103a4576103a3610a10565b5b602002602001015181526020018684815181106103c4576103c3610a10565b5b602002602001015181526020018484815181106103e4576103e3610a10565b5b6020026020010151815250908060018154018082558091505060019003906000526020600020906004020160009091909190915060008201518160000160006101000a81548173ffffffffffffffffffffffffffffffffffffffff021916908373ffffffffffffffffffffffffffffffffffffffff16021790555060208201518160010190816104749190610e4d565b50604082015181600201908161048a9190610e4d565b5060608201518160030190816104a09190610e4d565b5050507f9831ce2d3ba8b2ccfd0dfaf26627032bd579ee4b71283b77e8ac06f830ea75e4338483815181106104d8576104d7610a10565b5b60200260200101518684815181106104f3576104f2610a10565b5b602002602001015185858151811061050e5761050d610a10565b5b60200260200101516040516105269493929190610f58565b60405180910390a18080600101915050610346565b50505050565b6000819050919050565b61055481610541565b82525050565b600060208201905061056f600083018461054b565b92915050565b6000604051905090565b600080fd5b600080fd5b600080fd5b6000601f19601f8301169050919050565b7f4e487b7100000000000000000000000000000000000000000000000000000000600052604160045260246000fd5b6105d78261058e565b810181811067ffffffffffffffff821117156105f6576105f561059f565b5b80604052505050565b6000610609610575565b905061061582826105ce565b919050565b600067ffffffffffffffff8211156106355761063461059f565b5b602082029050602081019050919050565b600080fd5b600080fd5b600067ffffffffffffffff82111561066b5761066a61059f565b5b6106748261058e565b9050602081019050919050565b82818337600083830152505050565b60006106a361069e84610650565b6105ff565b9050828152602081018484840111156106bf576106be61064b565b5b6106ca848285610681565b509392505050565b600082601f8301126106e7576106e6610589565b5b81356106f7848260208601610690565b91505092915050565b600061071361070e8461061a565b6105ff565b9050808382526020820190506020840283018581111561073657610735610646565b5b835b8181101561077d57803567ffffffffffffffff81111561075b5761075a610589565b5b80860161076889826106d2565b85526020850194505050602081019050610738565b5050509392505050565b600082601f83011261079c5761079b610589565b5b81356107ac848260208601610700565b91505092915050565b600080604083850312156107cc576107cb61057f565b5b600083013567ffffffffffffffff8111156107ea576107e9610584565b5b6107f685828601610787565b925050602083013567ffffffffffffffff81111561081757610816610584565b5b610823858286016106d2565b9150509250929050565b600081519050919050565b600082825260208201905092915050565b6000819050602082019050919050565b61086281610541565b82525050565b60006108748383610859565b60208301905092915050565b6000602082019050919050565b60006108988261082d565b6108a28185610838565b93506108ad83610849565b8060005b838110156108de5781516108c58882610868565b97506108d083610880565b9250506001810190506108b1565b5085935050505092915050565b60006020820190508181036000830152610905818461088d565b905092915050565b600073ffffffffffffffffffffffffffffffffffffffff82169050919050565b60006109388261090d565b9050919050565b6109488161092d565b82525050565b6000602082019050610963600083018461093f565b92915050565b6000806000606084860312156109825761098161057f565b5b600084013567ffffffffffffffff8111156109a05761099f610584565b5b6109ac86828701610787565b935050602084013567ffffffffffffffff8111156109cd576109cc610584565b5b6109d986828701610787565b925050604084013567ffffffffffffffff8111156109fa576109f9610584565b5b610a0686828701610787565b9150509250925092565b7f4e487b7100000000000000000000000000000000000000000000000000000000600052603260045260246000fd5b600081519050919050565b600081905092915050565b60005b83811015610a73578082015181840152602081019050610a58565b60008484015250505050565b6000610a8a82610a3f565b610a948185610a4a565b9350610aa4818560208601610a55565b80840191505092915050565b6000610abc8284610a7f565b915081905092915050565b7f4e487b7100000000000000000000000000000000000000000000000000000000600052602260045260246000fd5b60006002820490506001821680610b0e57607f821691505b602082108103610b2157610b20610ac7565b5b50919050565b60008190508160005260206000209050919050565b60008154610b4981610af6565b610b538186610a4a565b94506001821660008114610b6e5760018114610b8357610bb6565b60ff1983168652811515820286019350610bb6565b610b8c85610b27565b60005b83811015610bae57815481890152600182019150602081019050610b8f565b838801955050505b50505092915050565b6000610bcb8284610b3c565b915081905092915050565b600082825260208201905092915050565b7f496e707574204461746120496e636f6e73697374656e74000000000000000000600082015250565b6000610c1d601783610bd6565b9150610c2882610be7565b602082019050919050565b60006020820190508181036000830152610c4c81610c10565b9050919050565b7f4e487b7100000000000000000000000000000000000000000000000000000000600052601160045260246000fd5b6000610c8d82610541565b9150610c9883610541565b9250828201905080821115610cb057610caf610c53565b5b92915050565b60006020601f8301049050919050565b600082821b905092915050565b600060088302610d037fffffffffffffffffffffffffffffffffffffffffffffffffffffffffffffffff82610cc6565b610d0d8683610cc6565b95508019841693508086168417925050509392505050565b6000819050919050565b6000610d4a610d45610d4084610541565b610d25565b610541565b9050919050565b6000819050919050565b610d6483610d2f565b610d78610d7082610d51565b848454610cd3565b825550505050565b600090565b610d8d610d80565b610d98818484610d5b565b505050565b5b81811015610dbc57610db1600082610d85565b600181019050610d9e565b5050565b601f821115610e0157610dd281610b27565b610ddb84610cb6565b81016020851015610dea578190505b610dfe610df685610cb6565b830182610d9d565b50505b505050565b600082821c905092915050565b6000610e2460001984600802610e06565b1980831691505092915050565b6000610e3d8383610e13565b9150826002028217905092915050565b610e5682610a3f565b67ffffffffffffffff811115610e6f57610e6e61059f565b5b610e798254610af6565b610e84828285610dc0565b600060209050601f831160018114610eb75760008415610ea5578287015190505b610eaf8582610e31565b865550610f17565b601f198416610ec586610b27565b60005b82811015610eed57848901518255600182019150602085019450602081019050610ec8565b86831015610f0a5784890151610f06601f891682610e13565b8355505b6001600288020188555050505b505050505050565b6000610f2a82610a3f565b610f348185610bd6565b9350610f44818560208601610a55565b610f4d8161058e565b840191505092915050565b6000608082019050610f6d600083018761093f565b8181036020830152610f7f8186610f1f565b90508181036040830152610f938185610f1f565b90508181036060830152610fa78184610f1f565b90509594505050505056fea26469706673582212203944ed84657c63efb4935ccb4828877c10f64b0e3774d64bad0be77fbc4ec97864736f6c63430008180033",
  "linkReferences": {},
  "deployedLinkReferences": {}
}